S01700004763634170706C69636174696F6E322E737265635A
S11300000C942A000C9447000C9447000C9447006D
S11300100C9447000C9447000C9447000C94470040
S11300200C9447000C9447000C9447000C94470030
S11300300C9447000C9447000C9447000C94470020
S11300400C9447000C9447000C9447000C94470010
S11300500C94470011241FBECFE5D4E0DEBFCDBF12
S113006010E0A0E6B0E0E2EEF0E002C005900D92F0
S1130070A036B107D9F710E0A0E6B0E001C01D92A8
S1130080A036B107E1F70E9449000C946F000C946C
S11300900000BB9A83B7896683BF1CBE9FEF8BE9C0
S11300A09CBF2FEF3EE944E2215030404040E1F74D
S11300B000C000008CBF2FEF3EE944E221503040E5
S11300C04040E1F700C000001CBE2FEF3EE944E2CF
S11300D0215030404040E1F700C00000E1CFF894E7
S10500E0FFCF4C
S9030000FC
