:100000000C942A000C9447000C9447000C94470071
:100010000C9447000C9447000C9447000C94470044
:100020000C9447000C9447000C9447000C94470034
:100030000C9447000C9447000C9447000C94470024
:100040000C9447000C9447000C9447000C94470014
:100050000C94470011241FBECFE5D4E0DEBFCDBF16
:1000600010E0A0E6B0E0ECEDF0E002C005900D92EB
:10007000A036B107D9F710E0A0E6B0E001C01D92AC
:10008000A036B107E1F70E9449000C946C000C9473
:1000900000008FEF87BB379A61E070E0369A36999F
:1000A000FECF24B185B1582F40E030E0242B352B12
:1000B000E8B3C901992314F481589F4F9C01220F82
:1000C000232F221F330BCB0102C0880F991F2A95C3
:0C00D000E2F78E2B88BBE2CFF894FFCF44
:00000001FF
