:100000000C942A000C9447000C9447000C94470071
:100010000C9447000C9447000C9447000C94470044
:100020000C9447000C9447000C9447000C94470034
:100030000C9447000C9447000C9447000C94470024
:100040000C9447000C9447000C9447000C94470014
:100050000C94470011241FBECFE5D4E0DEBFCDBF16
:1000600010E0A0E6B0E0E8EBF0E002C005900D92F1
:10007000A036B107D9F710E0A0E6B0E001C01D92AC
:10008000A036B107E1F70E9449000C945A000C9485
:1000900000008FEF81BB8AEA82BB88B3809588BB62
:1000A0008FEF93EDA0E381509040A040E1F700C0B6
:0800B0000000F3CFF894FFCF2C
:00000001FF
