S0110000696E746572727570742E7372656326
S11300000C942A000C9447000C9457000C9447005D
S11300100C9447000C9447000C9447000C94470040
S11300200C9447000C9447000C9447000C94470030
S11300300C9447000C9447000C9447000C94470020
S11300400C9447000C9447000C9447000C94470010
S11300500C94470011241FBECFE5D4E0DEBFCDBF12
S113006010E0A0E6B0E0E2E0F1E002C005900D92FD
S1130070A036B107D9F710E0A0E6B0E001C01D92A8
S1130080A036B107E1F70E9449000C947F000C945C
S113009000008FEF87BB81B311BA85B7846085BF39
S11300A08BB780688BBF78948AEA88BBFECF1F9297
S11300B00F920FB60F9211248F939F93AF93BF9318
S11300C085E588BB8FEF91EEA4E081509040A0407D
S11300D0E1F700C000008AEA88BB8FEF91EEA4E04C
S11300E081509040A040E1F700C00000BF91AF9163
S11300F09F918F910F900FBE0F901F901895F894B9
S1050100FFCF2B
S9030000FC
